:1000000019C020C01FC01EC01DC01CC01BC01AC00C
:1000100019C018C017C016C015C014C013C012C034
:1000200011C010C00FC00EC00DC00CC00BC00AC064
:1000300009C008C011241FBECFEFD2E0DEBFCDBF84
:1000400002D02DC0DDCF8FEF8AB987B980E010C014
:1000500021E030E0082E02C0220F331F0A94E2F79D
:100060002BB9EFE4F3EC3197F1F700C000008F5F9C
:10007000883070F380E010C021E030E0082E02C02C
:10008000220F331F0A94E2F728B9EFE4F3EC31971B
:10009000F1F700C000008F5F883070F3D7CFF8947D
:0200A000FFCF90
:00000001FF
